{
  "contractName": "HashTime",
  "abi": [
    {
      "anonymous": false,
      "inputs": [
        {
          "indexed": true,
          "internalType": "bytes32",
          "name": "contractId",
          "type": "bytes32"
        },
        {
          "indexed": true,
          "internalType": "address",
          "name": "sender",
          "type": "address"
        },
        {
          "indexed": true,
          "internalType": "address",
          "name": "receiver",
          "type": "address"
        },
        {
          "indexed": false,
          "internalType": "address",
          "name": "tokenContract",
          "type": "address"
        },
        {
          "indexed": false,
          "internalType": "uint256",
          "name": "amount",
          "type": "uint256"
        },
        {
          "indexed": false,
          "internalType": "uint256",
          "name": "timelock",
          "type": "uint256"
        }
      ],
      "name": "HTLCERC20New",
      "type": "event"
    },
    {
      "anonymous": false,
      "inputs": [
        {
          "indexed": true,
          "internalType": "bytes32",
          "name": "contractId",
          "type": "bytes32"
        }
      ],
      "name": "HTLCERC20Refund",
      "type": "event"
    },
    {
      "anonymous": false,
      "inputs": [
        {
          "indexed": true,
          "internalType": "bytes32",
          "name": "contractId",
          "type": "bytes32"
        }
      ],
      "name": "HTLCERC20Withdraw",
      "type": "event"
    },
    {
      "inputs": [
        {
          "internalType": "address",
          "name": "_receiver",
          "type": "address"
        },
        {
          "internalType": "bytes32",
          "name": "_hashlock",
          "type": "bytes32"
        },
        {
          "internalType": "uint256",
          "name": "_timelock",
          "type": "uint256"
        },
        {
          "internalType": "address",
          "name": "_tokenContract",
          "type": "address"
        },
        {
          "internalType": "uint256",
          "name": "_amount",
          "type": "uint256"
        }
      ],
      "name": "newContract",
      "outputs": [
        {
          "internalType": "bytes32",
          "name": "contractId",
          "type": "bytes32"
        }
      ],
      "stateMutability": "nonpayable",
      "type": "function"
    },
    {
      "inputs": [
        {
          "internalType": "bytes32",
          "name": "_contractId",
          "type": "bytes32"
        },
        {
          "internalType": "bytes32",
          "name": "_preimage",
          "type": "bytes32"
        },
        {
          "internalType": "string",
          "name": "_firma",
          "type": "string"
        }
      ],
      "name": "withdraw",
      "outputs": [
        {
          "internalType": "bool",
          "name": "",
          "type": "bool"
        }
      ],
      "stateMutability": "nonpayable",
      "type": "function"
    },
    {
      "inputs": [
        {
          "internalType": "bytes32",
          "name": "_contractId",
          "type": "bytes32"
        }
      ],
      "name": "refund",
      "outputs": [
        {
          "internalType": "bool",
          "name": "",
          "type": "bool"
        }
      ],
      "stateMutability": "nonpayable",
      "type": "function"
    },
    {
      "inputs": [
        {
          "internalType": "bytes32",
          "name": "_contractId",
          "type": "bytes32"
        }
      ],
      "name": "getContract",
      "outputs": [
        {
          "internalType": "address",
          "name": "sender",
          "type": "address"
        },
        {
          "internalType": "address",
          "name": "receiver",
          "type": "address"
        },
        {
          "internalType": "address",
          "name": "tokenContract",
          "type": "address"
        },
        {
          "internalType": "uint256",
          "name": "amount",
          "type": "uint256"
        },
        {
          "internalType": "bytes32",
          "name": "hashlock",
          "type": "bytes32"
        },
        {
          "internalType": "uint256",
          "name": "timelock",
          "type": "uint256"
        },
        {
          "internalType": "bool",
          "name": "withdrawn",
          "type": "bool"
        },
        {
          "internalType": "bool",
          "name": "refunded",
          "type": "bool"
        },
        {
          "internalType": "bytes32",
          "name": "preimage",
          "type": "bytes32"
        }
      ],
      "stateMutability": "view",
      "type": "function",
      "constant": true
    },
    {
      "inputs": [
        {
          "internalType": "string",
          "name": "_input",
          "type": "string"
        }
      ],
      "name": "calcular",
      "outputs": [
        {
          "internalType": "bytes32",
          "name": "",
          "type": "bytes32"
        }
      ],
      "stateMutability": "pure",
      "type": "function",
      "constant": true
    },
    {
      "inputs": [
        {
          "internalType": "bytes32",
          "name": "_contractId",
          "type": "bytes32"
        },
        {
          "internalType": "string",
          "name": "_x",
          "type": "string"
        }
      ],
      "name": "checkHash",
      "outputs": [],
      "stateMutability": "view",
      "type": "function",
      "constant": true
    }
  ],
  "bytecode": "0x608060405234801561001057600080fd5b50611f22806100206000396000f3fe608060405234801561001057600080fd5b50600436106100625760003560e01c8063398a7a981461006757806354216f10146100975780637249fbb6146100c75780637309ed36146100f7578063e16c7d9814610127578063e180c8501461015f575b600080fd5b610081600480360381019061007c91906110e6565b61017b565b60405161008e9190611170565b60405180910390f35b6100b160048036038101906100ac91906112d1565b6106ba565b6040516100be919061135b565b60405180910390f35b6100e160048036038101906100dc9190611376565b610a2f565b6040516100ee919061135b565b60405180910390f35b610111600480360381019061010c91906113a3565b610d8e565b60405161011e9190611170565b60405180910390f35b610141600480360381019061013c9190611376565b610e06565b6040516101569998979695949392919061140a565b60405180910390f35b61017960048036038101906101749190611497565b610f37565b005b6000823383600081116101c3576040517f08c379a00000000000000000000000000000000000000000000000000000000081526004016101ba90611550565b60405180910390fd5b808373ffffffffffffffffffffffffffffffffffffffff1663dd62ed3e84306040518363ffffffff1660e01b81526004016101ff929190611570565b60206040518083038186803b15801561021757600080fd5b505afa15801561022b573d6000803e3d6000fd5b505050506040513d601f19601f8201168201806040525081019061024f91906115ae565b1015610290576040517f08c379a00000000000000000000000000000000000000000000000000000000081526004016102879061164d565b60405180910390fd5b864281116102d3576040517f08c379a00000000000000000000000000000000000000000000000000000000081526004016102ca906116df565b60405180910390fd5b6002338b89898d8d6040516020016102f096959493929190611789565b60405160208183030381529060405260405161030c9190611873565b602060405180830381855afa158015610329573d6000803e3d6000fd5b5050506040513d601f19601f8201168201806040525081019061034c919061189f565b945061035785610f9a565b15610397576040517f08c379a000000000000000000000000000000000000000000000000000000000815260040161038e90611918565b60405180910390fd5b8673ffffffffffffffffffffffffffffffffffffffff166323b872dd3330896040518463ffffffff1660e01b81526004016103d493929190611938565b602060405180830381600087803b1580156103ee57600080fd5b505af1158015610402573d6000803e3d6000fd5b505050506040513d601f19601f82011682018060405250810190610426919061199b565b610465576040517f08c379a000000000000000000000000000000000000000000000000000000000815260040161045c90611a14565b60405180910390fd5b6040518061012001604052803373ffffffffffffffffffffffffffffffffffffffff1681526020018b73ffffffffffffffffffffffffffffffffffffffff1681526020018873ffffffffffffffffffffffffffffffffffffffff1681526020018781526020018a81526020018981526020016000151581526020016000151581526020016000801b81525060008087815260200190815260200160002060008201518160000160006101000a81548173ffffffffffffffffffffffffffffffffffffffff021916908373ffffffffffffffffffffffffffffffffffffffff16021790555060208201518160010160006101000a81548173ffffffffffffffffffffffffffffffffffffffff021916908373ffffffffffffffffffffffffffffffffffffffff16021790555060408201518160020160006101000a81548173ffffffffffffffffffffffffffffffffffffffff021916908373ffffffffffffffffffffffffffffffffffffffff160217905550606082015181600301556080820151816004015560a0820151816005015560c08201518160060160006101000a81548160ff02191690831515021790555060e08201518160060160016101000a81548160ff02191690831515021790555061010082015181600701559050508973ffffffffffffffffffffffffffffffffffffffff163373ffffffffffffffffffffffffffffffffffffffff16867fc3890027c293c9637b3b50169e7df14ccb82bfaf1a65062c93c208f8e5aba36c8a8a8d6040516106a593929190611a34565b60405180910390a45050505095945050505050565b6000836106c681610f9a565b610705576040517f08c379a00000000000000000000000000000000000000000000000000000000081526004016106fc90611ab7565b60405180910390fd5b848361071081610d8e565b6000808481526020019081526020016000206004015414610766576040517f08c379a000000000000000000000000000000000000000000000000000000000815260040161075d90611b23565b60405180910390fd5b863373ffffffffffffffffffffffffffffffffffffffff1660008083815260200190815260200160002060010160009054906101000a900473ffffffffffffffffffffffffffffffffffffffff1673ffffffffffffffffffffffffffffffffffffffff161461080a576040517f08c379a000000000000000000000000000000000000000000000000000000000815260040161080190611b8f565b60405180910390fd5b6000151560008083815260200190815260200160002060060160009054906101000a900460ff16151514610873576040517f08c379a000000000000000000000000000000000000000000000000000000000815260040161086a90611bfb565b60405180910390fd5b6000151560008083815260200190815260200160002060060160019054906101000a900460ff161515146108dc576040517f08c379a00000000000000000000000000000000000000000000000000000000081526004016108d390611c67565b60405180910390fd5b60008060008a8152602001908152602001600020905087816007018190555060018160060160006101000a81548160ff0219169083151502179055508060020160009054906101000a900473ffffffffffffffffffffffffffffffffffffffff1673ffffffffffffffffffffffffffffffffffffffff1663a9059cbb8260010160009054906101000a900473ffffffffffffffffffffffffffffffffffffffff1683600301546040518363ffffffff1660e01b815260040161099f929190611c87565b602060405180830381600087803b1580156109b957600080fd5b505af11580156109cd573d6000803e3d6000fd5b505050506040513d601f19601f820116820180604052508101906109f1919061199b565b50887f15a71365fee30a355046c80d10aab98a49c3558b2272658d6c551733203e9bbe60405160405180910390a26001955050505050509392505050565b600081610a3b81610f9a565b610a7a576040517f08c379a0000000000000000000000000000000000000000000000000000000008152600401610a7190611ab7565b60405180910390fd5b823373ffffffffffffffffffffffffffffffffffffffff1660008083815260200190815260200160002060000160009054906101000a900473ffffffffffffffffffffffffffffffffffffffff1673ffffffffffffffffffffffffffffffffffffffff1614610b1e576040517f08c379a0000000000000000000000000000000000000000000000000000000008152600401610b1590611cfc565b60405180910390fd5b6000151560008083815260200190815260200160002060060160019054906101000a900460ff16151514610b87576040517f08c379a0000000000000000000000000000000000000000000000000000000008152600401610b7e90611d68565b60405180910390fd5b6000151560008083815260200190815260200160002060060160009054906101000a900460ff16151514610bf0576040517f08c379a0000000000000000000000000000000000000000000000000000000008152600401610be790611dd4565b60405180910390fd5b42600080838152602001908152602001600020600501541115610c48576040517f08c379a0000000000000000000000000000000000000000000000000000000008152600401610c3f90611e66565b60405180910390fd5b6000806000868152602001908152602001600020905060018160060160016101000a81548160ff0219169083151502179055508060020160009054906101000a900473ffffffffffffffffffffffffffffffffffffffff1673ffffffffffffffffffffffffffffffffffffffff1663a9059cbb8260000160009054906101000a900473ffffffffffffffffffffffffffffffffffffffff1683600301546040518363ffffffff1660e01b8152600401610d02929190611c87565b602060405180830381600087803b158015610d1c57600080fd5b505af1158015610d30573d6000803e3d6000fd5b505050506040513d601f19601f82011682018060405250810190610d54919061199b565b50847ff97bb6718c3bf29e51d27c00a46276abc2cf35c7f1d5a1c71bec2c82421bb83060405160405180910390a260019350505050919050565b6000600282604051602001610da39190611eca565b604051602081830303815290604052604051610dbf9190611873565b602060405180830381855afa158015610ddc573d6000803e3d6000fd5b5050506040513d601f19601f82011682018060405250810190610dff919061189f565b9050919050565b6000806000806000806000806000801515610e208b610f9a565b15151415610e595760008060008060008060008060008460001b94508060001b9050985098509850985098509850985098509850610f2a565b60008060008c815260200190815260200160002090508060000160009054906101000a900473ffffffffffffffffffffffffffffffffffffffff168160010160009054906101000a900473ffffffffffffffffffffffffffffffffffffffff168260020160009054906101000a900473ffffffffffffffffffffffffffffffffffffffff168360030154846004015485600501548660060160009054906101000a900460ff168760060160019054906101000a900460ff168860070154995099509950995099509950995099509950505b9193959799909294969850565b610f4081610d8e565b6000808481526020019081526020016000206004015414610f96576040517f08c379a0000000000000000000000000000000000000000000000000000000008152600401610f8d90611b23565b60405180910390fd5b5050565b60008073ffffffffffffffffffffffffffffffffffffffff1660008084815260200190815260200160002060000160009054906101000a900473ffffffffffffffffffffffffffffffffffffffff1673ffffffffffffffffffffffffffffffffffffffff1614159050919050565b6000604051905090565b600080fd5b600080fd5b600073ffffffffffffffffffffffffffffffffffffffff82169050919050565b60006110478261101c565b9050919050565b6110578161103c565b811461106257600080fd5b50565b6000813590506110748161104e565b92915050565b6000819050919050565b61108d8161107a565b811461109857600080fd5b50565b6000813590506110aa81611084565b92915050565b6000819050919050565b6110c3816110b0565b81146110ce57600080fd5b50565b6000813590506110e0816110ba565b92915050565b600080600080600060a0868803121561110257611101611012565b5b600061111088828901611065565b95505060206111218882890161109b565b9450506040611132888289016110d1565b935050606061114388828901611065565b9250506080611154888289016110d1565b9150509295509295909350565b61116a8161107a565b82525050565b60006020820190506111856000830184611161565b92915050565b600080fd5b600080fd5b6000601f19601f8301169050919050565b7f4e487b7100000000000000000000000000000000000000000000000000000000600052604160045260246000fd5b6111de82611195565b810181811067ffffffffffffffff821117156111fd576111fc6111a6565b5b80604052505050565b6000611210611008565b905061121c82826111d5565b919050565b600067ffffffffffffffff82111561123c5761123b6111a6565b5b61124582611195565b9050602081019050919050565b82818337600083830152505050565b600061127461126f84611221565b611206565b9050828152602081018484840111156112905761128f611190565b5b61129b848285611252565b509392505050565b600082601f8301126112b8576112b761118b565b5b81356112c8848260208601611261565b91505092915050565b6000806000606084860312156112ea576112e9611012565b5b60006112f88682870161109b565b93505060206113098682870161109b565b925050604084013567ffffffffffffffff81111561132a57611329611017565b5b611336868287016112a3565b9150509250925092565b60008115159050919050565b61135581611340565b82525050565b6000602082019050611370600083018461134c565b92915050565b60006020828403121561138c5761138b611012565b5b600061139a8482850161109b565b91505092915050565b6000602082840312156113b9576113b8611012565b5b600082013567ffffffffffffffff8111156113d7576113d6611017565b5b6113e3848285016112a3565b91505092915050565b6113f58161103c565b82525050565b611404816110b0565b82525050565b600061012082019050611420600083018c6113ec565b61142d602083018b6113ec565b61143a604083018a6113ec565b61144760608301896113fb565b6114546080830188611161565b61146160a08301876113fb565b61146e60c083018661134c565b61147b60e083018561134c565b611489610100830184611161565b9a9950505050505050505050565b600080604083850312156114ae576114ad611012565b5b60006114bc8582860161109b565b925050602083013567ffffffffffffffff8111156114dd576114dc611017565b5b6114e9858286016112a3565b9150509250929050565b600082825260208201905092915050565b7f746f6b656e20616d6f756e74206d757374206265203e20300000000000000000600082015250565b600061153a6018836114f3565b915061154582611504565b602082019050919050565b600060208201905081810360008301526115698161152d565b9050919050565b600060408201905061158560008301856113ec565b61159260208301846113ec565b9392505050565b6000815190506115a8816110ba565b92915050565b6000602082840312156115c4576115c3611012565b5b60006115d284828501611599565b91505092915050565b7f746f6b656e20616c6c6f77616e6365206d757374206265203e3d20616d6f756e60008201527f7400000000000000000000000000000000000000000000000000000000000000602082015250565b60006116376021836114f3565b9150611642826115db565b604082019050919050565b600060208201905081810360008301526116668161162a565b9050919050565b7f74696d656c6f636b2074696d65206d75737420626520696e207468652066757460008201527f7572650000000000000000000000000000000000000000000000000000000000602082015250565b60006116c96023836114f3565b91506116d48261166d565b604082019050919050565b600060208201905081810360008301526116f8816116bc565b9050919050565b60008160601b9050919050565b6000611717826116ff565b9050919050565b60006117298261170c565b9050919050565b61174161173c8261103c565b61171e565b82525050565b6000819050919050565b61176261175d826110b0565b611747565b82525050565b6000819050919050565b61178361177e8261107a565b611768565b82525050565b60006117958289611730565b6014820191506117a58288611730565b6014820191506117b58287611730565b6014820191506117c58286611751565b6020820191506117d58285611772565b6020820191506117e58284611751565b602082019150819050979650505050505050565b600081519050919050565b600081905092915050565b60005b8381101561182d578082015181840152602081019050611812565b8381111561183c576000848401525b50505050565b600061184d826117f9565b6118578185611804565b935061186781856020860161180f565b80840191505092915050565b600061187f8284611842565b915081905092915050565b60008151905061189981611084565b92915050565b6000602082840312156118b5576118b4611012565b5b60006118c38482850161188a565b91505092915050565b7f436f6e747261637420616c726561647920657869737473000000000000000000600082015250565b60006119026017836114f3565b915061190d826118cc565b602082019050919050565b60006020820190508181036000830152611931816118f5565b9050919050565b600060608201905061194d60008301866113ec565b61195a60208301856113ec565b61196760408301846113fb565b949350505050565b61197881611340565b811461198357600080fd5b50565b6000815190506119958161196f565b92915050565b6000602082840312156119b1576119b0611012565b5b60006119bf84828501611986565b91505092915050565b7f7472616e7366657246726f6d2073656e6465722066616c6c6f00000000000000600082015250565b60006119fe6019836114f3565b9150611a09826119c8565b602082019050919050565b60006020820190508181036000830152611a2d816119f1565b9050919050565b6000606082019050611a4960008301866113ec565b611a5660208301856113fb565b611a6360408301846113fb565b949350505050565b7f636f6e7472616374496420646f6573206e6f7420657869737400000000000000600082015250565b6000611aa16019836114f3565b9150611aac82611a6b565b602082019050919050565b60006020820190508181036000830152611ad081611a94565b9050919050565b7f686173686c6f636b206861736820646f6573206e6f74206d6174636800000000600082015250565b6000611b0d601c836114f3565b9150611b1882611ad7565b602082019050919050565b60006020820190508181036000830152611b3c81611b00565b9050919050565b7f776974686472617761626c653a206e6f74207265636569766572000000000000600082015250565b6000611b79601a836114f3565b9150611b8482611b43565b602082019050919050565b60006020820190508181036000830152611ba881611b6c565b9050919050565b7f776974686472617761626c653a20616c72656164792077697468647261776e00600082015250565b6000611be5601f836114f3565b9150611bf082611baf565b602082019050919050565b60006020820190508181036000830152611c1481611bd8565b9050919050565b7f776974686472617761626c653a20616c726561647920726566756e6465640000600082015250565b6000611c51601e836114f3565b9150611c5c82611c1b565b602082019050919050565b60006020820190508181036000830152611c8081611c44565b9050919050565b6000604082019050611c9c60008301856113ec565b611ca960208301846113fb565b9392505050565b7f726566756e6461626c653a206e6f742073656e64657200000000000000000000600082015250565b6000611ce66016836114f3565b9150611cf182611cb0565b602082019050919050565b60006020820190508181036000830152611d1581611cd9565b9050919050565b7f726566756e6461626c653a20616c726561647920726566756e64656400000000600082015250565b6000611d52601c836114f3565b9150611d5d82611d1c565b602082019050919050565b60006020820190508181036000830152611d8181611d45565b9050919050565b7f726566756e6461626c653a20616c72656164792077697468647261776e000000600082015250565b6000611dbe601d836114f3565b9150611dc982611d88565b602082019050919050565b60006020820190508181036000830152611ded81611db1565b9050919050565b7f726566756e6461626c653a2074696d656c6f636b206e6f74207965742070617360008201527f7365640000000000000000000000000000000000000000000000000000000000602082015250565b6000611e506023836114f3565b9150611e5b82611df4565b604082019050919050565b60006020820190508181036000830152611e7f81611e43565b9050919050565b600081519050919050565b6000611e9c82611e86565b611ea681856114f3565b9350611eb681856020860161180f565b611ebf81611195565b840191505092915050565b60006020820190508181036000830152611ee48184611e91565b90509291505056fea2646970667358221220c2f39f57c569daecb68aa7b6fef8effabb237f1771670873525f46238c222e9764736f6c63430008090033",
  "immutableReferences": {},
  "source": "// SPDX-License-Identifier: MIT\npragma solidity >=0.4.22 <0.9.0;\nimport \"@openzeppelin/contracts/token/ERC20/ERC20.sol\";\n\n\n/**\n* @title Hashed Timelock Contracts (HTLCs) on Ethereum ERC20 tokens.\n*\n* This contract provides a way to create and keep HTLCs for ERC20 tokens.\n*\n* See HashedTimelock.sol for a contract that provides the same functions\n* for the native ETH token.\n*\n* Protocol:\n*\n*  1) newContract(receiver, hashlock, timelock, tokenContract, amount) - a\n*      sender calls this to create a new HTLC on a given token (tokenContract)\n*       for a given amount. A 32 byte contract id is returned\n*  2) withdraw(contractId, preimage) - once the receiver knows the preimage of\n*      the hashlock hash they can claim the tokens with this function\n*  3) refund() - after timelock has expired and if the receiver did not\n*      withdraw the tokens the sender / creator of the HTLC can get their tokens\n*      back with this function.\n */\ncontract HashTime {\n    event HTLCERC20New(\n        bytes32 indexed contractId,\n        address indexed sender,\n        address indexed receiver,\n        address tokenContract,\n        uint256 amount,\n        uint256 timelock\n    );\n    event HTLCERC20Withdraw(bytes32 indexed contractId);\n    event HTLCERC20Refund(bytes32 indexed contractId);\n\n    struct LockContract {\n        address sender;\n        address receiver;\n        address tokenContract;\n        uint256 amount;\n        bytes32 hashlock;\n        // locked UNTIL this time. Unit depends on consensus algorithm.\n        // PoA, PoA and IBFT all use seconds. But Quorum Raft uses nano-seconds\n        uint256 timelock;\n        bool withdrawn;\n        bool refunded;\n        bytes32 preimage;\n    }\n\n    modifier tokensTransferable(address _token, address _sender, uint256 _amount) {\n        require(_amount > 0, \"token amount must be > 0\");\n        require(\n            ERC20(_token).allowance(_sender, address(this)) >= _amount,\n            \"token allowance must be >= amount\"\n        );\n        _;\n    }\n    modifier futureTimelock(uint256 _time) {\n        // only requirement is the timelock time is after the last blocktime (now).\n        // probably want something a bit further in the future then this.\n        // but this is still a useful sanity check:\n        require(_time > block.timestamp, \"timelock time must be in the future\");\n        _;\n    }\n    modifier contractExists(bytes32 _contractId) {\n        require(haveContract(_contractId), \"contractId does not exist\");\n        _;\n    }\n    modifier hashlockMatches(bytes32 _contractId, string memory _x) {\n        require(\n            contracts[_contractId].hashlock == calcular(_x),\n            \"hashlock hash does not match\"\n        );\n        _;\n    }\n    modifier withdrawable(bytes32 _contractId) {\n        require(contracts[_contractId].receiver == msg.sender, \"withdrawable: not receiver\");\n        require(contracts[_contractId].withdrawn == false, \"withdrawable: already withdrawn\");\n        // This check needs to be added if claims are allowed after timeout. That is, if the following timelock check is commented out\n        require(contracts[_contractId].refunded == false, \"withdrawable: already refunded\");\n        // if we want to disallow claim to be made after the timeout, uncomment the following line\n        // require(contracts[_contractId].timelock > now, \"withdrawable: timelock time must be in the future\");\n        _;\n    }\n    modifier refundable(bytes32 _contractId) {\n        require(contracts[_contractId].sender == msg.sender, \"refundable: not sender\");\n        require(contracts[_contractId].refunded == false, \"refundable: already refunded\");\n        require(contracts[_contractId].withdrawn == false, \"refundable: already withdrawn\");\n        require(contracts[_contractId].timelock <= block.timestamp, \"refundable: timelock not yet passed\");\n        _;\n    }\n\n    mapping (bytes32 => LockContract) contracts;\n\n    /**\n     * @dev Sender / Payer sets up a new hash time lock contract depositing the\n     * funds and providing the reciever and terms.\n     *\n     * NOTE: _receiver must first call approve() on the token contract.\n     *       See allowance check in tokensTransferable modifier.\n\n     * @param _receiver Receiver of the tokens.\n     * @param _hashlock A sha-2 sha256 hash hashlock.\n     * @param _timelock UNIX epoch seconds time that the lock expires at.\n     *                  Refunds can be made after this time.\n     * @param _tokenContract ERC20 Token contract address.\n     * @param _amount Amount of the token to lock up.\n     * @return contractId Id of the new HTLC. This is needed for subsequent\n     *                    calls.\n     */\n    function newContract(\n        address _receiver,\n        bytes32 _hashlock,\n        uint256 _timelock,\n        address _tokenContract,\n        uint256 _amount\n    )\n        external\n        tokensTransferable(_tokenContract, msg.sender, _amount)\n        futureTimelock(_timelock)\n        returns (bytes32 contractId)\n    {\n        contractId = sha256(\n            abi.encodePacked(\n                msg.sender,\n                _receiver,\n                _tokenContract,\n                _amount,\n                _hashlock,\n                _timelock\n            )\n        );\n\n        // Reject if a contract already exists with the same parameters. The\n        // sender must change one of these parameters (ideally providing a\n        // different _hashlock).\n        if (haveContract(contractId))\n            revert(\"Contract already exists\");\n\n        // This contract becomes the temporary owner of the tokens\n        if (!ERC20(_tokenContract).transferFrom(msg.sender, address(this), _amount))\n            revert(\"transferFrom sender fallo\");\n\n        contracts[contractId] = LockContract(\n            msg.sender,\n            _receiver,\n            _tokenContract,\n            _amount,\n            _hashlock,\n            _timelock,\n            false,\n            false,\n            0x0\n        );\n\n        emit HTLCERC20New(\n            contractId,\n            msg.sender,\n            _receiver,\n            _tokenContract,\n            _amount,\n            _timelock\n        );\n    }\n\n    /**\n    * @dev Called by the receiver once they know the preimage of the hashlock.\n    * This will transfer ownership of the locked tokens to their address.\n    *\n    * @param _contractId Id of the HTLC.\n    * @param _preimage sha256(_preimage) should equal the contract hashlock.\n    * @return bool true on success\n     */\n    function withdraw(bytes32 _contractId, bytes32 _preimage,string memory _firma)\n        external\n        contractExists(_contractId)\n        hashlockMatches(_contractId, _firma)\n        withdrawable(_contractId)\n        returns (bool)\n    {\n        LockContract storage c = contracts[_contractId];\n        c.preimage = _preimage;\n        c.withdrawn = true;\n        ERC20(c.tokenContract).transfer(c.receiver, c.amount);\n        emit HTLCERC20Withdraw(_contractId);\n        return true;\n    }\n\n    /**\n     * @dev Called by the sender if there was no withdraw AND the time lock has\n     * expired. This will restore ownership of the tokens to the sender.\n     *\n     * @param _contractId Id of HTLC to refund from.\n     * @return bool true on success\n     */\n    function refund(bytes32 _contractId)\n        external\n        contractExists(_contractId)\n        refundable(_contractId)\n        returns (bool)\n    {\n        LockContract storage c = contracts[_contractId];\n        c.refunded = true;\n        ERC20(c.tokenContract).transfer(c.sender, c.amount);\n        emit HTLCERC20Refund(_contractId);\n        return true;\n    }\n\n    /*\n     * @dev Get contract details.\n     * @param _contractId HTLC contract id\n     * @return All parameters in struct LockContract for _contractId HTLC\n     */\n    function getContract(bytes32 _contractId)\n        public\n        view\n        returns (\n            address sender,\n            address receiver,\n            address tokenContract,\n            uint256 amount,\n            bytes32 hashlock,\n            uint256 timelock,\n            bool withdrawn,\n            bool refunded,\n            bytes32 preimage\n        )\n    {\n        if (haveContract(_contractId) == false)\n             return (address(0), address(0), address(0), 0, 0, 0, false, false, 0);\n        LockContract storage c = contracts[_contractId];\n        return (\n            c.sender,\n            c.receiver,\n            c.tokenContract,\n            c.amount,\n            c.hashlock,\n            c.timelock,\n            c.withdrawn,\n            c.refunded,\n            c.preimage\n        );\n    }\n\n    /**\n     * @dev Is there a contract with id _contractId.\n     * @param _contractId Id into contracts mapping.\n     */\n    function haveContract(bytes32 _contractId)\n        internal\n        view\n        returns (bool exists)\n    {\n        exists = (contracts[_contractId].sender != address(0));\n    }\n\n    function calcular(string memory _input)\n        public\n        pure\n        returns (bytes32)\n    {\n        return sha256(abi.encode((_input)));\n    }\n\n\n    function checkHash(bytes32 _contractId, string memory _x)external view{\n        require(\n            contracts[_contractId].hashlock == calcular(_x),\n            \"hashlock hash does not match\"\n            );\n        \n    }\n\n}",
  "sourcePath": "/Users/aarontolentino/Desktop/Templus/contracts/HashTime.sol",
  "compiler": {
    "name": "solc",
    "version": "0.8.9+commit.e5eed63a.Emscripten.clang"
  },
  "schemaVersion": "3.4.1",
  "updatedAt": "2021-10-21T01:57:58.341Z",
  "networkType": "ethereum",
  "devdoc": {
    "kind": "dev",
    "methods": {
      "newContract(address,bytes32,uint256,address,uint256)": {
        "details": "Sender / Payer sets up a new hash time lock contract depositing the funds and providing the reciever and terms. NOTE: _receiver must first call approve() on the token contract.       See allowance check in tokensTransferable modifier.",
        "params": {
          "_amount": "Amount of the token to lock up.",
          "_hashlock": "A sha-2 sha256 hash hashlock.",
          "_receiver": "Receiver of the tokens.",
          "_timelock": "UNIX epoch seconds time that the lock expires at.                  Refunds can be made after this time.",
          "_tokenContract": "ERC20 Token contract address."
        },
        "returns": {
          "contractId": "Id of the new HTLC. This is needed for subsequent                    calls."
        }
      },
      "refund(bytes32)": {
        "details": "Called by the sender if there was no withdraw AND the time lock has expired. This will restore ownership of the tokens to the sender.",
        "params": {
          "_contractId": "Id of HTLC to refund from."
        },
        "returns": {
          "_0": "bool true on success"
        }
      },
      "withdraw(bytes32,bytes32,string)": {
        "details": "Called by the receiver once they know the preimage of the hashlock. This will transfer ownership of the locked tokens to their address.",
        "params": {
          "_contractId": "Id of the HTLC.",
          "_preimage": "sha256(_preimage) should equal the contract hashlock."
        },
        "returns": {
          "_0": "bool true on success"
        }
      }
    },
    "title": "Hashed Timelock Contracts (HTLCs) on Ethereum ERC20 tokens. This contract provides a way to create and keep HTLCs for ERC20 tokens. See HashedTimelock.sol for a contract that provides the same functions for the native ETH token. Protocol:  1) newContract(receiver, hashlock, timelock, tokenContract, amount) - a      sender calls this to create a new HTLC on a given token (tokenContract)       for a given amount. A 32 byte contract id is returned  2) withdraw(contractId, preimage) - once the receiver knows the preimage of      the hashlock hash they can claim the tokens with this function  3) refund() - after timelock has expired and if the receiver did not      withdraw the tokens the sender / creator of the HTLC can get their tokens      back with this function.",
    "version": 1
  },
  "userdoc": {
    "kind": "user",
    "methods": {},
    "version": 1
  }
}