{
  "contractName": "Templus",
  "abi": [
    {
      "inputs": [
        {
          "internalType": "uint256",
          "name": "initialSupply",
          "type": "uint256"
        }
      ],
      "stateMutability": "nonpayable",
      "type": "constructor"
    },
    {
      "anonymous": false,
      "inputs": [
        {
          "indexed": true,
          "internalType": "address",
          "name": "owner",
          "type": "address"
        },
        {
          "indexed": true,
          "internalType": "address",
          "name": "spender",
          "type": "address"
        },
        {
          "indexed": false,
          "internalType": "uint256",
          "name": "value",
          "type": "uint256"
        }
      ],
      "name": "Approval",
      "type": "event"
    },
    {
      "anonymous": false,
      "inputs": [
        {
          "indexed": false,
          "internalType": "bytes",
          "name": "",
          "type": "bytes"
        }
      ],
      "name": "Datos",
      "type": "event"
    },
    {
      "anonymous": false,
      "inputs": [
        {
          "indexed": false,
          "internalType": "bool",
          "name": "",
          "type": "bool"
        }
      ],
      "name": "ElEvento",
      "type": "event"
    },
    {
      "anonymous": false,
      "inputs": [
        {
          "indexed": true,
          "internalType": "address",
          "name": "from",
          "type": "address"
        },
        {
          "indexed": true,
          "internalType": "address",
          "name": "to",
          "type": "address"
        },
        {
          "indexed": false,
          "internalType": "uint256",
          "name": "value",
          "type": "uint256"
        }
      ],
      "name": "Transfer",
      "type": "event"
    },
    {
      "inputs": [
        {
          "internalType": "address",
          "name": "owner",
          "type": "address"
        },
        {
          "internalType": "address",
          "name": "spender",
          "type": "address"
        }
      ],
      "name": "allowance",
      "outputs": [
        {
          "internalType": "uint256",
          "name": "",
          "type": "uint256"
        }
      ],
      "stateMutability": "view",
      "type": "function",
      "constant": true
    },
    {
      "inputs": [
        {
          "internalType": "address",
          "name": "spender",
          "type": "address"
        },
        {
          "internalType": "uint256",
          "name": "amount",
          "type": "uint256"
        }
      ],
      "name": "approve",
      "outputs": [
        {
          "internalType": "bool",
          "name": "",
          "type": "bool"
        }
      ],
      "stateMutability": "nonpayable",
      "type": "function"
    },
    {
      "inputs": [
        {
          "internalType": "address",
          "name": "account",
          "type": "address"
        }
      ],
      "name": "balanceOf",
      "outputs": [
        {
          "internalType": "uint256",
          "name": "",
          "type": "uint256"
        }
      ],
      "stateMutability": "view",
      "type": "function",
      "constant": true
    },
    {
      "inputs": [],
      "name": "decimals",
      "outputs": [
        {
          "internalType": "uint8",
          "name": "",
          "type": "uint8"
        }
      ],
      "stateMutability": "view",
      "type": "function",
      "constant": true
    },
    {
      "inputs": [
        {
          "internalType": "address",
          "name": "spender",
          "type": "address"
        },
        {
          "internalType": "uint256",
          "name": "subtractedValue",
          "type": "uint256"
        }
      ],
      "name": "decreaseAllowance",
      "outputs": [
        {
          "internalType": "bool",
          "name": "",
          "type": "bool"
        }
      ],
      "stateMutability": "nonpayable",
      "type": "function"
    },
    {
      "inputs": [
        {
          "internalType": "address",
          "name": "spender",
          "type": "address"
        },
        {
          "internalType": "uint256",
          "name": "addedValue",
          "type": "uint256"
        }
      ],
      "name": "increaseAllowance",
      "outputs": [
        {
          "internalType": "bool",
          "name": "",
          "type": "bool"
        }
      ],
      "stateMutability": "nonpayable",
      "type": "function"
    },
    {
      "inputs": [],
      "name": "name",
      "outputs": [
        {
          "internalType": "string",
          "name": "",
          "type": "string"
        }
      ],
      "stateMutability": "view",
      "type": "function",
      "constant": true
    },
    {
      "inputs": [],
      "name": "symbol",
      "outputs": [
        {
          "internalType": "string",
          "name": "",
          "type": "string"
        }
      ],
      "stateMutability": "view",
      "type": "function",
      "constant": true
    },
    {
      "inputs": [],
      "name": "totalSupply",
      "outputs": [
        {
          "internalType": "uint256",
          "name": "",
          "type": "uint256"
        }
      ],
      "stateMutability": "view",
      "type": "function",
      "constant": true
    },
    {
      "inputs": [
        {
          "internalType": "address",
          "name": "recipient",
          "type": "address"
        },
        {
          "internalType": "uint256",
          "name": "amount",
          "type": "uint256"
        }
      ],
      "name": "transfer",
      "outputs": [
        {
          "internalType": "bool",
          "name": "",
          "type": "bool"
        }
      ],
      "stateMutability": "nonpayable",
      "type": "function"
    },
    {
      "inputs": [
        {
          "internalType": "address",
          "name": "sender",
          "type": "address"
        },
        {
          "internalType": "address",
          "name": "recipient",
          "type": "address"
        },
        {
          "internalType": "uint256",
          "name": "amount",
          "type": "uint256"
        }
      ],
      "name": "transferFrom",
      "outputs": [
        {
          "internalType": "bool",
          "name": "",
          "type": "bool"
        }
      ],
      "stateMutability": "nonpayable",
      "type": "function"
    },
    {
      "inputs": [
        {
          "internalType": "string",
          "name": "_input",
          "type": "string"
        }
      ],
      "name": "calcularHash",
      "outputs": [
        {
          "internalType": "bytes32",
          "name": "",
          "type": "bytes32"
        }
      ],
      "stateMutability": "pure",
      "type": "function",
      "constant": true
    },
    {
      "inputs": [
        {
          "internalType": "string",
          "name": "_input",
          "type": "string"
        }
      ],
      "name": "calcularHash2",
      "outputs": [
        {
          "internalType": "bytes32",
          "name": "",
          "type": "bytes32"
        }
      ],
      "stateMutability": "pure",
      "type": "function",
      "constant": true
    },
    {
      "inputs": [
        {
          "internalType": "address",
          "name": "_add",
          "type": "address"
        },
        {
          "internalType": "uint256",
          "name": "_x",
          "type": "uint256"
        }
      ],
      "name": "dameMoney",
      "outputs": [
        {
          "internalType": "bytes32",
          "name": "",
          "type": "bytes32"
        }
      ],
      "stateMutability": "payable",
      "type": "function",
      "payable": true
    },
    {
      "inputs": [
        {
          "internalType": "address payable",
          "name": "_to",
          "type": "address"
        }
      ],
      "name": "ejemploCall",
      "outputs": [],
      "stateMutability": "payable",
      "type": "function",
      "payable": true
    },
    {
      "inputs": [],
      "name": "pagaEth",
      "outputs": [],
      "stateMutability": "payable",
      "type": "function",
      "payable": true
    },
    {
      "inputs": [],
      "name": "recive",
      "outputs": [],
      "stateMutability": "payable",
      "type": "function",
      "payable": true
    },
    {
      "inputs": [
        {
          "internalType": "address payable",
          "name": "_to",
          "type": "address"
        }
      ],
      "name": "enviar",
      "outputs": [],
      "stateMutability": "payable",
      "type": "function",
      "payable": true
    },
    {
      "inputs": [],
      "name": "contractBalance",
      "outputs": [
        {
          "internalType": "uint256",
          "name": "",
          "type": "uint256"
        }
      ],
      "stateMutability": "view",
      "type": "function",
      "constant": true
    }
  ],
  "bytecode": "0x608060405260006005553480156200001657600080fd5b50604051620021f4380380620021f483398181016040528101906200003c919062000368565b6040518060400160405280600781526020017f54656d706c7573000000000000000000000000000000000000000000000000008152506040518060400160405280600381526020017f544d5000000000000000000000000000000000000000000000000000000000008152508160039080519060200190620000c092919062000278565b508060049080519060200190620000d992919062000278565b505050620000ee3382620000f560201b60201c565b506200053c565b600073ffffffffffffffffffffffffffffffffffffffff168273ffffffffffffffffffffffffffffffffffffffff16141562000168576040517f08c379a00000000000000000000000000000000000000000000000000000000081526004016200015f90620003fb565b60405180910390fd5b6200017c600083836200026e60201b60201c565b80600260008282546200019091906200044c565b92505081905550806000808473ffffffffffffffffffffffffffffffffffffffff1673ffffffffffffffffffffffffffffffffffffffff1681526020019081526020016000206000828254620001e791906200044c565b925050819055508173ffffffffffffffffffffffffffffffffffffffff16600073ffffffffffffffffffffffffffffffffffffffff167fddf252ad1be2c89b69c2b068fc378daa952ba7f163c4a11628f55a4df523b3ef836040516200024e9190620004ba565b60405180910390a36200026a600083836200027360201b60201c565b5050565b505050565b505050565b828054620002869062000506565b90600052602060002090601f016020900481019282620002aa5760008555620002f6565b82601f10620002c557805160ff1916838001178555620002f6565b82800160010185558215620002f6579182015b82811115620002f5578251825591602001919060010190620002d8565b5b50905062000305919062000309565b5090565b5b80821115620003245760008160009055506001016200030a565b5090565b600080fd5b6000819050919050565b62000342816200032d565b81146200034e57600080fd5b50565b600081519050620003628162000337565b92915050565b60006020828403121562000381576200038062000328565b5b6000620003918482850162000351565b91505092915050565b600082825260208201905092915050565b7f45524332303a206d696e7420746f20746865207a65726f206164647265737300600082015250565b6000620003e3601f836200039a565b9150620003f082620003ab565b602082019050919050565b600060208201905081810360008301526200041681620003d4565b9050919050565b7f4e487b7100000000000000000000000000000000000000000000000000000000600052601160045260246000fd5b600062000459826200032d565b915062000466836200032d565b9250827fffffffffffffffffffffffffffffffffffffffffffffffffffffffffffffffff038211156200049e576200049d6200041d565b5b828201905092915050565b620004b4816200032d565b82525050565b6000602082019050620004d16000830184620004a9565b92915050565b7f4e487b7100000000000000000000000000000000000000000000000000000000600052602260045260246000fd5b600060028204905060018216806200051f57607f821691505b60208210811415620005365762000535620004d7565b5b50919050565b611ca8806200054c6000396000f3fe6080604052600436106101145760003560e01c80635c75ecb8116100a0578063a457c2d711610064578063a457c2d71461038e578063a9059cbb146103cb578063dcfabb2d14610408578063dd62ed3e14610438578063fdd91af01461047557610114565b80635c75ecb8146102d557806370a08231146102df5780638b7afe2e1461031c57806395d89b4114610347578063a3535fec1461037257610114565b8063313ce567116100e7578063313ce567146101e957806335897cad146102145780633599c13d1461021e578063395093511461025b5780633d76e9091461029857610114565b806306fdde0314610119578063095ea7b31461014457806318160ddd1461018157806323b872dd146101ac575b600080fd5b34801561012557600080fd5b5061012e610491565b60405161013b9190611131565b60405180910390f35b34801561015057600080fd5b5061016b600480360381019061016691906111fb565b610523565b6040516101789190611256565b60405180910390f35b34801561018d57600080fd5b50610196610541565b6040516101a39190611280565b60405180910390f35b3480156101b857600080fd5b506101d360048036038101906101ce919061129b565b61054b565b6040516101e09190611256565b60405180910390f35b3480156101f557600080fd5b506101fe610643565b60405161020b919061130a565b60405180910390f35b61021c61064c565b005b34801561022a57600080fd5b506102456004803603810190610240919061145a565b61064e565b60405161025291906114bc565b60405180910390f35b34801561026757600080fd5b50610282600480360381019061027d91906111fb565b61067e565b60405161028f9190611256565b60405180910390f35b3480156102a457600080fd5b506102bf60048036038101906102ba919061145a565b61072a565b6040516102cc91906114bc565b60405180910390f35b6102dd61075a565b005b3480156102eb57600080fd5b50610306600480360381019061030191906114d7565b6107b5565b6040516103139190611280565b60405180910390f35b34801561032857600080fd5b506103316107fd565b60405161033e9190611280565b60405180910390f35b34801561035357600080fd5b5061035c610805565b6040516103699190611131565b60405180910390f35b61038c60048036038101906103879190611542565b610897565b005b34801561039a57600080fd5b506103b560048036038101906103b091906111fb565b610984565b6040516103c29190611256565b60405180910390f35b3480156103d757600080fd5b506103f260048036038101906103ed91906111fb565b610a6f565b6040516103ff9190611256565b60405180910390f35b610422600480360381019061041d91906111fb565b610a8d565b60405161042f91906114bc565b60405180910390f35b34801561044457600080fd5b5061045f600480360381019061045a919061156f565b610ac9565b60405161046c9190611280565b60405180910390f35b61048f600480360381019061048a9190611542565b610b50565b005b6060600380546104a0906115de565b80601f01602080910402602001604051908101604052809291908181526020018280546104cc906115de565b80156105195780601f106104ee57610100808354040283529160200191610519565b820191906000526020600020905b8154815290600101906020018083116104fc57829003601f168201915b5050505050905090565b6000610537610530610c3a565b8484610c42565b6001905092915050565b6000600254905090565b6000610558848484610e0d565b6000600160008673ffffffffffffffffffffffffffffffffffffffff1673ffffffffffffffffffffffffffffffffffffffff16815260200190815260200160002060006105a3610c3a565b73ffffffffffffffffffffffffffffffffffffffff1673ffffffffffffffffffffffffffffffffffffffff16815260200190815260200160002054905082811015610623576040517f08c379a000000000000000000000000000000000000000000000000000000000815260040161061a90611682565b60405180910390fd5b6106378561062f610c3a565b858403610c42565b60019150509392505050565b60006012905090565b565b60008160405160200161066191906116de565b604051602081830303815290604052805190602001209050919050565b600061072061068b610c3a565b848460016000610699610c3a565b73ffffffffffffffffffffffffffffffffffffffff1673ffffffffffffffffffffffffffffffffffffffff16815260200190815260200160002060008873ffffffffffffffffffffffffffffffffffffffff1673ffffffffffffffffffffffffffffffffffffffff1681526020019081526020016000205461071b9190611724565b610c42565b6001905092915050565b60008160405160200161073d91906116de565b604051602081830303815290604052805190602001209050919050565b670de0b6b3a764000034101561076f57600080fd5b34600760003373ffffffffffffffffffffffffffffffffffffffff1673ffffffffffffffffffffffffffffffffffffffff16815260200190815260200160002081905550565b60008060008373ffffffffffffffffffffffffffffffffffffffff1673ffffffffffffffffffffffffffffffffffffffff168152602001908152602001600020549050919050565b600047905090565b606060048054610814906115de565b80601f0160208091040260200160405190810160405280929190818152602001828054610840906115de565b801561088d5780601f106108625761010080835404028352916020019161088d565b820191906000526020600020905b81548152906001019060200180831161087057829003601f168201915b5050505050905090565b600047905060008273ffffffffffffffffffffffffffffffffffffffff16826040516108c2906117ab565b60006040518083038185875af1925050503d80600081146108ff576040519150601f19603f3d011682016040523d82523d6000602084013e610904565b606091505b5050905080610948576040517f08c379a000000000000000000000000000000000000000000000000000000000815260040161093f9061180c565b60405180910390fd5b7fdeb40d6efb39b4116846a5d0f427d50b451c62279adbf7348acc93d02fcd17cc816040516109779190611256565b60405180910390a1505050565b60008060016000610993610c3a565b73ffffffffffffffffffffffffffffffffffffffff1673ffffffffffffffffffffffffffffffffffffffff16815260200190815260200160002060008573ffffffffffffffffffffffffffffffffffffffff1673ffffffffffffffffffffffffffffffffffffffff16815260200190815260200160002054905082811015610a50576040517f08c379a0000000000000000000000000000000000000000000000000000000008152600401610a479061189e565b60405180910390fd5b610a64610a5b610c3a565b85858403610c42565b600191505092915050565b6000610a83610a7c610c3a565b8484610e0d565b6001905092915050565b6000610a998383610a6f565b5033604051602001610aab9190611906565b60405160208183030381529060405280519060200120905092915050565b6000600160008473ffffffffffffffffffffffffffffffffffffffff1673ffffffffffffffffffffffffffffffffffffffff16815260200190815260200160002060008373ffffffffffffffffffffffffffffffffffffffff1673ffffffffffffffffffffffffffffffffffffffff16815260200190815260200160002054905092915050565b6000808273ffffffffffffffffffffffffffffffffffffffff1634604051610b77906117ab565b60006040518083038185875af1925050503d8060008114610bb4576040519150601f19603f3d011682016040523d82523d6000602084013e610bb9565b606091505b509150915081610bfe576040517f08c379a0000000000000000000000000000000000000000000000000000000008152600401610bf59061180c565b60405180910390fd5b7f59b9639042f7294f65bbcfc337f8300bf7f1553e56f5befffb6f959c165d35b381604051610c2d9190611976565b60405180910390a1505050565b600033905090565b600073ffffffffffffffffffffffffffffffffffffffff168373ffffffffffffffffffffffffffffffffffffffff161415610cb2576040517f08c379a0000000000000000000000000000000000000000000000000000000008152600401610ca990611a0a565b60405180910390fd5b600073ffffffffffffffffffffffffffffffffffffffff168273ffffffffffffffffffffffffffffffffffffffff161415610d22576040517f08c379a0000000000000000000000000000000000000000000000000000000008152600401610d1990611a9c565b60405180910390fd5b80600160008573ffffffffffffffffffffffffffffffffffffffff1673ffffffffffffffffffffffffffffffffffffffff16815260200190815260200160002060008473ffffffffffffffffffffffffffffffffffffffff1673ffffffffffffffffffffffffffffffffffffffff168152602001908152602001600020819055508173ffffffffffffffffffffffffffffffffffffffff168373ffffffffffffffffffffffffffffffffffffffff167f8c5be1e5ebec7d5bd14f71427d1e84f3dd0314c0f7b2291e5b200ac8c7c3b92583604051610e009190611280565b60405180910390a3505050565b600073ffffffffffffffffffffffffffffffffffffffff168373ffffffffffffffffffffffffffffffffffffffff161415610e7d576040517f08c379a0000000000000000000000000000000000000000000000000000000008152600401610e7490611b2e565b60405180910390fd5b600073ffffffffffffffffffffffffffffffffffffffff168273ffffffffffffffffffffffffffffffffffffffff161415610eed576040517f08c379a0000000000000000000000000000000000000000000000000000000008152600401610ee490611bc0565b60405180910390fd5b610ef883838361108e565b60008060008573ffffffffffffffffffffffffffffffffffffffff1673ffffffffffffffffffffffffffffffffffffffff16815260200190815260200160002054905081811015610f7e576040517f08c379a0000000000000000000000000000000000000000000000000000000008152600401610f7590611c52565b60405180910390fd5b8181036000808673ffffffffffffffffffffffffffffffffffffffff1673ffffffffffffffffffffffffffffffffffffffff16815260200190815260200160002081905550816000808573ffffffffffffffffffffffffffffffffffffffff1673ffffffffffffffffffffffffffffffffffffffff16815260200190815260200160002060008282546110119190611724565b925050819055508273ffffffffffffffffffffffffffffffffffffffff168473ffffffffffffffffffffffffffffffffffffffff167fddf252ad1be2c89b69c2b068fc378daa952ba7f163c4a11628f55a4df523b3ef846040516110759190611280565b60405180910390a3611088848484611093565b50505050565b505050565b505050565b600081519050919050565b600082825260208201905092915050565b60005b838110156110d25780820151818401526020810190506110b7565b838111156110e1576000848401525b50505050565b6000601f19601f8301169050919050565b600061110382611098565b61110d81856110a3565b935061111d8185602086016110b4565b611126816110e7565b840191505092915050565b6000602082019050818103600083015261114b81846110f8565b905092915050565b6000604051905090565b600080fd5b600080fd5b600073ffffffffffffffffffffffffffffffffffffffff82169050919050565b600061119282611167565b9050919050565b6111a281611187565b81146111ad57600080fd5b50565b6000813590506111bf81611199565b92915050565b6000819050919050565b6111d8816111c5565b81146111e357600080fd5b50565b6000813590506111f5816111cf565b92915050565b600080604083850312156112125761121161115d565b5b6000611220858286016111b0565b9250506020611231858286016111e6565b9150509250929050565b60008115159050919050565b6112508161123b565b82525050565b600060208201905061126b6000830184611247565b92915050565b61127a816111c5565b82525050565b60006020820190506112956000830184611271565b92915050565b6000806000606084860312156112b4576112b361115d565b5b60006112c2868287016111b0565b93505060206112d3868287016111b0565b92505060406112e4868287016111e6565b9150509250925092565b600060ff82169050919050565b611304816112ee565b82525050565b600060208201905061131f60008301846112fb565b92915050565b600080fd5b600080fd5b7f4e487b7100000000000000000000000000000000000000000000000000000000600052604160045260246000fd5b611367826110e7565b810181811067ffffffffffffffff821117156113865761138561132f565b5b80604052505050565b6000611399611153565b90506113a5828261135e565b919050565b600067ffffffffffffffff8211156113c5576113c461132f565b5b6113ce826110e7565b9050602081019050919050565b82818337600083830152505050565b60006113fd6113f8846113aa565b61138f565b9050828152602081018484840111156114195761141861132a565b5b6114248482856113db565b509392505050565b600082601f83011261144157611440611325565b5b81356114518482602086016113ea565b91505092915050565b6000602082840312156114705761146f61115d565b5b600082013567ffffffffffffffff81111561148e5761148d611162565b5b61149a8482850161142c565b91505092915050565b6000819050919050565b6114b6816114a3565b82525050565b60006020820190506114d160008301846114ad565b92915050565b6000602082840312156114ed576114ec61115d565b5b60006114fb848285016111b0565b91505092915050565b600061150f82611167565b9050919050565b61151f81611504565b811461152a57600080fd5b50565b60008135905061153c81611516565b92915050565b6000602082840312156115585761155761115d565b5b60006115668482850161152d565b91505092915050565b600080604083850312156115865761158561115d565b5b6000611594858286016111b0565b92505060206115a5858286016111b0565b9150509250929050565b7f4e487b7100000000000000000000000000000000000000000000000000000000600052602260045260246000fd5b600060028204905060018216806115f657607f821691505b6020821081141561160a576116096115af565b5b50919050565b7f45524332303a207472616e7366657220616d6f756e742065786365656473206160008201527f6c6c6f77616e6365000000000000000000000000000000000000000000000000602082015250565b600061166c6028836110a3565b915061167782611610565b604082019050919050565b6000602082019050818103600083015261169b8161165f565b9050919050565b600081905092915050565b60006116b882611098565b6116c281856116a2565b93506116d28185602086016110b4565b80840191505092915050565b60006116ea82846116ad565b915081905092915050565b7f4e487b7100000000000000000000000000000000000000000000000000000000600052601160045260246000fd5b600061172f826111c5565b915061173a836111c5565b9250827fffffffffffffffffffffffffffffffffffffffffffffffffffffffffffffffff0382111561176f5761176e6116f5565b5b828201905092915050565b600081905092915050565b50565b600061179560008361177a565b91506117a082611785565b600082019050919050565b60006117b682611788565b9150819050919050565b7f4661696c656420746f2073656e64204574686572000000000000000000000000600082015250565b60006117f66014836110a3565b9150611801826117c0565b602082019050919050565b60006020820190508181036000830152611825816117e9565b9050919050565b7f45524332303a2064656372656173656420616c6c6f77616e63652062656c6f7760008201527f207a65726f000000000000000000000000000000000000000000000000000000602082015250565b60006118886025836110a3565b91506118938261182c565b604082019050919050565b600060208201905081810360008301526118b78161187b565b9050919050565b60008160601b9050919050565b60006118d6826118be565b9050919050565b60006118e8826118cb565b9050919050565b6119006118fb82611187565b6118dd565b82525050565b600061191282846118ef565b60148201915081905092915050565b600081519050919050565b600082825260208201905092915050565b600061194882611921565b611952818561192c565b93506119628185602086016110b4565b61196b816110e7565b840191505092915050565b60006020820190508181036000830152611990818461193d565b905092915050565b7f45524332303a20617070726f76652066726f6d20746865207a65726f2061646460008201527f7265737300000000000000000000000000000000000000000000000000000000602082015250565b60006119f46024836110a3565b91506119ff82611998565b604082019050919050565b60006020820190508181036000830152611a23816119e7565b9050919050565b7f45524332303a20617070726f766520746f20746865207a65726f20616464726560008201527f7373000000000000000000000000000000000000000000000000000000000000602082015250565b6000611a866022836110a3565b9150611a9182611a2a565b604082019050919050565b60006020820190508181036000830152611ab581611a79565b9050919050565b7f45524332303a207472616e736665722066726f6d20746865207a65726f20616460008201527f6472657373000000000000000000000000000000000000000000000000000000602082015250565b6000611b186025836110a3565b9150611b2382611abc565b604082019050919050565b60006020820190508181036000830152611b4781611b0b565b9050919050565b7f45524332303a207472616e7366657220746f20746865207a65726f206164647260008201527f6573730000000000000000000000000000000000000000000000000000000000602082015250565b6000611baa6023836110a3565b9150611bb582611b4e565b604082019050919050565b60006020820190508181036000830152611bd981611b9d565b9050919050565b7f45524332303a207472616e7366657220616d6f756e742065786365656473206260008201527f616c616e63650000000000000000000000000000000000000000000000000000602082015250565b6000611c3c6026836110a3565b9150611c4782611be0565b604082019050919050565b60006020820190508181036000830152611c6b81611c2f565b905091905056fea264697066735822122004acf17978ade93288dfa9fa30840d5ff81af8306ed76c89a1e76fe97c96a45564736f6c63430008090033",
  "immutableReferences": {},
  "source": "// SPDX-License-Identifier: MIT\npragma solidity >=0.4.22 <0.9.0;\nimport \"@openzeppelin/contracts/token/ERC20/ERC20.sol\";\n\ncontract Templus is ERC20 {\n    uint256 num=0;\n\n    mapping(address=>bool) owners;\n    mapping(address=>uint) balances;\n    \n    constructor(uint256 initialSupply) ERC20(\"Templus\", \"TMP\") {\n        _mint(msg.sender, initialSupply);\n    }\n\n    function calcularHash(string memory _input)public pure returns(bytes32){\n        return keccak256(abi.encodePacked(_input));\n    }\n\n\n    function calcularHash2(string memory _input)public pure returns(bytes32){\n        return keccak256(abi.encodePacked(_input));\n    }    \n\n\n    function dameMoney(address _add,uint256 _x)public payable returns(bytes32){\n        transfer(_add, _x);\n        return keccak256(abi.encodePacked(msg.sender));\n\n    }\n\n    \n\n    event ElEvento(bool);\n    function ejemploCall(address payable _to)public payable{\n        //bool exito=_to.transfer(1 ether);\n        uint amount = address(this).balance;\n        (bool success, ) = _to.call{value: amount}(\"\");\n        require(success, \"Failed to send Ether\");\n\n        emit ElEvento(success);\n    }\n\n    function pagaEth()external payable{\n        if(msg.value<1 ether){\n            revert();\n        }\n        balances[msg.sender]=msg.value;\n        \n    }\n\n    function recive()external payable{}\n\n\n    event Datos(bytes);\n\n    function enviar(address payable _to)external payable{\n        //bool requisito=_to.transfer(msg.value);\n        //address payable aqui=;\n         (bool sent, bytes memory data) = _to.call{value: msg.value}(\"\");\n        require(sent, \"Failed to send Ether\");\n        emit Datos(data);\n    }\n\n    function contractBalance()public view returns(uint){\n        return address(this).balance;\n    }\n\n    \n}",
  "sourcePath": "/Users/aarontolentino/Desktop/Templus/contracts/Templus.sol",
  "compiler": {
    "name": "solc",
    "version": "0.8.9+commit.e5eed63a.Emscripten.clang"
  },
  "schemaVersion": "3.4.1",
  "updatedAt": "2021-10-21T01:57:58.329Z",
  "networkType": "ethereum",
  "devdoc": {
    "kind": "dev",
    "methods": {
      "allowance(address,address)": {
        "details": "See {IERC20-allowance}."
      },
      "approve(address,uint256)": {
        "details": "See {IERC20-approve}. Requirements: - `spender` cannot be the zero address."
      },
      "balanceOf(address)": {
        "details": "See {IERC20-balanceOf}."
      },
      "decimals()": {
        "details": "Returns the number of decimals used to get its user representation. For example, if `decimals` equals `2`, a balance of `505` tokens should be displayed to a user as `5,05` (`505 / 10 ** 2`). Tokens usually opt for a value of 18, imitating the relationship between Ether and Wei. This is the value {ERC20} uses, unless this function is overridden; NOTE: This information is only used for _display_ purposes: it in no way affects any of the arithmetic of the contract, including {IERC20-balanceOf} and {IERC20-transfer}."
      },
      "decreaseAllowance(address,uint256)": {
        "details": "Atomically decreases the allowance granted to `spender` by the caller. This is an alternative to {approve} that can be used as a mitigation for problems described in {IERC20-approve}. Emits an {Approval} event indicating the updated allowance. Requirements: - `spender` cannot be the zero address. - `spender` must have allowance for the caller of at least `subtractedValue`."
      },
      "increaseAllowance(address,uint256)": {
        "details": "Atomically increases the allowance granted to `spender` by the caller. This is an alternative to {approve} that can be used as a mitigation for problems described in {IERC20-approve}. Emits an {Approval} event indicating the updated allowance. Requirements: - `spender` cannot be the zero address."
      },
      "name()": {
        "details": "Returns the name of the token."
      },
      "symbol()": {
        "details": "Returns the symbol of the token, usually a shorter version of the name."
      },
      "totalSupply()": {
        "details": "See {IERC20-totalSupply}."
      },
      "transfer(address,uint256)": {
        "details": "See {IERC20-transfer}. Requirements: - `recipient` cannot be the zero address. - the caller must have a balance of at least `amount`."
      },
      "transferFrom(address,address,uint256)": {
        "details": "See {IERC20-transferFrom}. Emits an {Approval} event indicating the updated allowance. This is not required by the EIP. See the note at the beginning of {ERC20}. Requirements: - `sender` and `recipient` cannot be the zero address. - `sender` must have a balance of at least `amount`. - the caller must have allowance for ``sender``'s tokens of at least `amount`."
      }
    },
    "version": 1
  },
  "userdoc": {
    "kind": "user",
    "methods": {},
    "version": 1
  }
}